:020000040000FA
:060000000A128A110C280F
:10000800FE00030EF0000A08F1000A128A15002803
:100018000A128A110F28FA01FB018313A030840009
:10002800CD300A168A1160220A128A1183010A1237
:100038008A15E82C83160313D7005008F5004F08DB
:10004800F4004E08F3004D08F2000A128A15072042
:100058000A128A11730883160313D4007208D30096
:10006800DE01DF01DC01DD010130E0000030E100EC
:100078005008F5004F08F4004E08F3004D08F20050
:100088000030F9000030F8000030F7000030F600CA
:100098000A168A11A0260A128A110318542855280C
:1000A800C328BF3083120313D4008030D30000303C
:1000B800D2000030D10083160313500883120313B3
:1000C800D800831603134F0883120313D70083162F
:1000D80003134E0883120313D600831603134D0827
:1000E80083120313D5000A128A1180240A128A1176
:1000F80083120313540883160313D00083120313C7
:10010800530883160313CF00831203135208831670
:100118000313CE0083120313510883160313CD0073
:100128002D3083120313EB00831603135708840042
:10013800831203136B0883138000013083160313A3
:10014800DC070318DD0A0030DD07C3280A30F20097
:100158000030F3005408F5005308F4000A168A1119
:1001680037260A128A11730883160313D4007208FB
:10017800D3000130DE070318DF0A0030DF078316DB
:10018800031353085404031DCA28CB28AA28132A8A
:100198005E035F04031DD128D228D7280130E00070
:1001A8000030E10019290230D5000030D6000329BB
:1001B80083160313610883120313A600831603131F
:1001C800600883120313A5000A30A7000030A800B6
:1001D8000A168A11FE220A128A11831203132608AC
:1001E80083160313E10083120313250883160313F0
:1001F800E0000130D5070318D60A0030D6075F089B
:10020800803A83120313EB00831603135608803ACF
:10021800831203136B02031D152983160313550854
:100228005E02031818291929DC28831603136008AD
:1002380083120313A900831603136108831203139F
:10024800AA000030AA1BFF30AB00AC0001300A1630
:100258008A1144270A128A11831203132C08BA0040
:100268002B08B9002A08B8002908B7008316031319
:10027800500883120313BE00831603134F0883121A
:100288000313BD00831603134E0883120313BC0027
:10029800831603134D0883120313BB000A128A1531
:1002A80083200A128A11831203133A088316031350
:1002B800DB0083120313390883160313DA00831251
:1002C8000313380883160313D9008312031337085E
:1002D80083160313D800610883120313A80083163A
:1002E8000313600883120313A700831603135B0824
:1002F800F5005A08F4005908F3005808F2000A12E9
:100308008A1507200A128A11730883120313A6009C
:100318007208A5000A168A11FE220A128A1183128F
:1003280003132508A9002608AA000030AA1BFF30DD
:10033800AB00AC0001300A168A1144270A128A1150
:10034800831203132C08BA002B08B9002A08B80036
:100358002908B70083160313500883120313BE003D
:10036800831603134F0883120313BD008316031368
:100378004E0883120313BC00831603134D0883121F
:100388000313BB000A168A11DA220A128A11831291
:1003980003133A0883160313D00083120313390892
:1003A80083160313CF00831203133808831603132D
:1003B800CE0083120313370883160313CD005B089E
:1003C800F5005A08F4005908F3005808F2000A1218
:1003D8008A1507200A128A117208303E8312031305
:1003E800EB00831603135C08570783120313EC0012
:1003F8006C0884006B088313800001308316031394
:10040800DC070318DD0A0030DD07FF30DE070318BC
:10041800DF0AFF30DF070130E0000030E1005E084E
:100428005F04031D182A192ACC282E3083120313BF
:10043800EB00831603135C08570783120313EC00C1
:100448006C0884006B088313800001308316031343
:10045800DC070318DD0A0030DD070130D500003065
:10046800D6005D2A83160313610883120313A600BE
:1004780083160313600883120313A5000A30A7002C
:100488000030A8000A168A11FE220A128A11831265
:100498000313260883160313E100831203132508A8
:1004A80083160313E0000130D5070318D60A00307D
:1004B800D6075208803A83120313EB0083160313FE
:1004C8005608803A831203136B02031D6F2A8316A2
:1004D8000313550851020318722A732A362A831601
:1004E8000313600883120313A9008316031361081A
:1004F80083120313AA000030AA1BFF30AB00AC0024
:1005080001300A168A1144270A128A11831203132A
:100518002C08D4002B08D3002A08D2002908D100BF
:10052800831603135008F5004F08F4004E08F30033
:100538004D08F2000A128A1507200A128A11720859
:1005480083120313A9007308AA000030AA1BFF3006
:10055800AB00AC0001300A168A1144270A128A112E
:10056800831203132C08BA002B08B9002A08B80014
:100578002908B70083160313500883120313BE001B
:10058800831603134F0883120313BD008316031346
:100598004E0883120313BC00831603134D088312FD
:1005A8000313BB000A168A11DA220A128A1183126F
:1005B80003133A08D8003908D7003808D600370896
:1005C800D5000A128A1180240A128A118312031391
:1005D800540883160313DB0083120313530883168E
:1005E8000313DA0083120313520883160313D90086
:1005F80083120313510883160313D8005B08D00035
:100608005A08CF005908CE005808CD005008F50008
:100618004F08F4004E08F3004D08F2000A128A153C
:1006280007200A128A11013083160313E0000030F4
:10063800E1005208DF005108DE00692C5E035F0408
:10064800031D272B282B2D2B0130E0000030E10063
:100658006F2B0230D5000030D600592B83160313B8
:10066800610883120313A60083160313600883121C
:100678000313A5000A30A7000030A8000A168A1143
:10068800FE220A128A118312031326088316031303
:10069800E10083120313250883160313E0000130D9
:1006A800D5070318D60A0030D6075F08803A8312A8
:1006B8000313EB00831603135608803A83120313BF
:1006C8006B02031D6B2B8316031355085E02031878
:1006D8006E2B6F2B322B83160313600883120313C0
:1006E800A90083160313610883120313AA000030BC
:1006F800AA1BFF30AB00AC0001300A168A11442750
:100708000A128A11831203132C08BA002B08B900A5
:100718002A08B8002908B700831603135008831263
:100728000313BE00831603134F0883120313BD007F
:10073800831603134E0883120313BC008316031396
:100748004D0883120313BB000A128A1583200A126C
:100758008A11831203133A0883160313DB008312EA
:100768000313390883160313DA00831203133808B6
:1007780083160313D9008312031337088316031350
:10078800D800610883120313A800831603136008B6
:1007980083120313A700831603135B08F5005A0896
:1007A800F4005908F3005808F2000A128A150720C5
:1007B8000A128A11730883120313A6007208A5008F
:1007C8000A168A11FE220A128A11831203132508B7
:1007D800A9002608AA000030AA1BFF30AB00AC0015
:1007E80001300A168A1144270A128A118312031348
:1007F8002C08BA002B08B9002A08B8002908B70045
:1008080083160313500883120313BE0083160313C1
:100818004F0883120313BD00831603134E08831277
:100828000313BC00831603134D0883120313BB0084
:100838000A168A11DA220A128A11831203133A0855
:1008480083160313D0008312031339088316031386
:10085800CF0083120313380883160313CE008312C4
:100868000313370883160313CD005B08F5005A08F5
:10087800F4005908F3005808F2000A128A150720F4
:100888000A128A117208303E83120313EB00831692
:1008980003135C08570783120313EC006C088400E9
:1008A8006B0883138000013083160313DC070318D9
:1008B800DD0A0030DD07FF30DE070318DF0AFF30EE
:1008C800DF070130E0000030E1005E085F04031D2F
:1008D8006E2C6F2C222B0A3083120313EB00831625
:1008E80003135C08570783120313EC006C08840099
:1008F8006B0883138000080083120313540880399F
:10090800D9005908DE005408D9005907DA005A08F6
:10091800E400D31F902C912C922C641464080319C2
:10092800962C972CA62C640A031D9B2C9C2CA42C7B
:100938000030D4000030D3000030D2000030D100A5
:10094800D317AE2C0030D4000030D3000030D200D2
:100958000030D10058088039D9005908DE065808F7
:10096800D9005907DA005A08DF00D71FBC2CBD2C64
:10097800BE2C5F145F080319C22CC32CD22C5F0A4B
:10098800031DC72CC82CD02C0030D8000030D7004D
:100998000030D6000030D500D717DA2C0030D80048
:1009A8000030D7000030D6000030D5005F080319AA
:1009B800DE2CDF2CE42C6408031DE32CE42CED2C46
:1009C8000030D4000030D3000030D2000030D10015
:1009D800E02F5108D9005908F20057080A168A1161
:1009E80025230A128A11730883120313EA00720876
:1009F800E9006908D900DA01DB01DC015C08E300E1
:100A08005B08E2005A08E1005908E0006A08D900CA
:100A1800DA01DB01DC015C08E8005B08E7005A0842
:100A2800E6005908E5005208D9005908F2005608AE
:100A38000A168A1125230A128A11730883120313CE
:100A4800EA007208E9006908D900DA01DB01DC0173
:100A58005908E0075A0803110318013E0319352DF8
:100A6800E1075B0803110318013E03193C2DE20757
:100A78005C0803110318013E0319432DE3076A08B4
:100A8800D900DA01DB01DC015908E5075A0803112E
:100A98000318013E0319512DE6075B0803110318DB
:100AA800013E0319582DE7075C0803110318013E9E
:100AB80003195F2DE8075308D9005908F2005508B3
:100AC8000A168A1125230A128A117308831203133E
:100AD800EA007208E9006908D900DA01DB01DC01E3
:100AE8005908E0075A0803110318013E03197D2D20
:100AF800E1075B0803110318013E0319842DE2077F
:100B08005C0803110318013E03198B2DE3076A08DB
:100B1800D900DA01DB01DC015908E5075A0803119D
:100B28000318013E0319992DE6075B080311031802
:100B3800013E0319A02DE7075C0803110318013EC5
:100B48000319A72DE8070830D9000310E00DE10DBF
:100B5800E20DE30DD90BA92D5208D9005908F2006E
:100B680055080A168A1125230A128A117308831256
:100B78000313EA007208E9006908D9006A08DA0074
:100B8800DB01DC015908E0075A0803110318013E8C
:100B98000319CF2DE1075B0803110318013E031960
:100BA800D62DE2075C0803110318013E0319DD2D59
:100BB800E3075108D9005908F20056080A168A11A5
:100BC80025230A128A11730883120313EA00720894
:100BD800E9006908D9006A08DA00DB01DC01590874
:100BE800E0075A0803110318013E0319FC2DE10719
:100BF8005B0803110318013E0319032EE2075C0882
:100C080003110318013E03190A2EE3070830D9001F
:100C18000310E00DE10DE20DE30DD90B0C2E510888
:100C2800D9005908F20055080A168A1125230A1214
:100C38008A11730883120313EA007208E90069082D
:100C4800D9006A08DA00DB01DC015908E0075A0814
:100C580003110318013E0319322EE1075B08031143
:100C68000318013E0319392EE2075C080311031823
:100C7800013E0319402EE3075208D9005908F20033
:100C880057080A168A1125230A128A117308831233
:100C98000313EA007208E9006908D9006A08DA0053
:100CA800DB01DC015908E5075A0803110318013E66
:100CB80003195F2EE6075B0803110318013E0319A9
:100CC800662EE7075C0803110318013E03196D2E11
:100CD800E8075308D9005908F20056080A168A117D
:100CE80025230A128A11730883120313EA00720873
:100CF800E9006908D9006A08DA00DB01DC01590853
:100D0800E5075A0803110318013E03198C2EE6075C
:100D18005B0803110318013E0319932EE7075C08CB
:100D280003110318013E03199A2EE8075308D90046
:100D38005908F20057080A168A1125230A128A113F
:100D4800730883120313EA007208E9006908D900DE
:100D58006A08DA00DB01DC0108300310D90DDA0D6E
:100D6800DB0DDC0DFF3E031DB12E5908E5075A08BF
:100D780003110318013E0319C22EE6075B0803118D
:100D88000318013E0319C92EE7075C08031103186D
:100D9800013E0319D02EE8076008D9006108DA007F
:100DA8006208DB006308DC0018300310DC0CDB0C85
:100DB800DA0CD90CFF3E031DD92E5908E5075A084D
:100DC80003110318013E0319EA2EE6075B08031115
:100DD8000318013E0319F12EE7075C0803110318F5
:100DE800013E0319F82EE8070830D9000310E00D7A
:100DF800E10DE20DE30DD90BFA2E64085F07D90067
:100E0800DA01DA0D5908823EE9005A080318013E52
:100E1800FF3EEA002C2F0130D9000310E50DE60D46
:100E2800E70DE80DD90B112FE31F1B2F1C2F1D2FCA
:100E380065140130D9000310E00DE10DE20DE30D5A
:100E4800D90B1F2FFF30E9070318EA0AFF30EA071A
:100E5800E71F2F2F302F0F2FDF01E31F342F352FE0
:100E6800512FFF306005D900FF306105DA00FF30EF
:100E78006205DB007F306305DC005C085B045A0414
:100E880059040319482F492F4C2FDF01DF0A512F2E
:100E9800651C4F2F502F512F492F5F080319552FCD
:100EA800562F872F0130E507003003180130E60779
:100EB800003003180130E707003003180130E80755
:100EC800681C672F682F872F6508D9006608DA0025
:100ED8006708DB006808DC000130DD005C0DDC0C15
:100EE800DB0CDA0CD90CDD0B722F5C08E8005B0810
:100EF800E7005A08E6005908E5000130E907031839
:100F0800EA0A0030EA076A08803AFF0080307F0268
:100F1800031D902FFF306902031C932F942F9F2FDE
:100F28007F3083120313E8008030E7000030E600CA
:100F38000030E500D42F831203136A08803AFF00BB
:100F480080307F02031DAA2F013069020318AD2FDC
:100F5800AE2FBA2F003083120313E8000030E700E9
:100F68000030E6000030E500DE01D42F83120313C1
:100F78006908D9005908E400FF30E505FF30E605A7
:100F88007F30E7050030E805641CCB2FCC2FCD2F30
:100F9800E7176408D9000310590CDA005A08E8006A
:100FA8005E08D9005908E8046808D4006708D30027
:100FB8006608D2006508D1000800FF1BEB2F8313D9
:100FC8007F1883170008840A0319FF0A08000730EE
:100FD8008A000408840A8207003453343134003408
:100FE8005334323400345334333400342734003427
:040FF8005634003437
:1010000071088A00700E8300FE0E7E0E0900031028
:10101000740D750D83120313A0002008F7007708E4
:10102000031D132814281D280030F5000030F4009B
:101030000030F3000030F20082287208A00073082C
:10104000A1007408A2007508A3001F300310A30CB0
:10105000A20CA10CA00CFF3E031D26282008A40012
:101060002408F600F417FF30F205FF30F305FF30D7
:10107000F4050030F5059630F702F71F40284128A7
:101080005B287708803A973E031847284828492864
:10109000142801300310F50CF40CF30CF20CFF3E95
:1010A000031D4A280130A0002008F707031D592816
:1010B0005A284928722820307702031C60286128AA
:1010C0006D2814280130A0000310F20DF30DF40D6B
:1010D000F50DA00B64280130F7027708031D712875
:1010E0007228622876080319762877288228F20960
:1010F000F309F409F509F20A0319F30A0319F40ACA
:101100000319F50A0800831203133E088039BF0053
:101110003F08C8003E08BF003F07C0004008CF009E
:10112000BD1F9328942895284F144F080319992818
:101130009A28AA284F0A031D9E289F28A728003016
:10114000BE000030BD000030BC000030BB00BD1749
:10115000BE01B2280030BE000030BD000030BC002F
:101160000030BB003A088039BF003F08C8063A0883
:10117000BF003F07C0004008D000B91FC028C128E9
:10118000C228501450080319C628C728D728500A67
:10119000031DCB28CC28D4280030BA000030B90079
:1011A0000030B8000030B700B917BA01DF280030AE
:1011B000BA000030B9000030B8000030B7003A087B
:1011C000390438043704031DE628E72800290030D5
:1011D000BE000030BD000030BC000030BB008030DD
:1011E000BD047F30BE044808BF003F08BE043E086F
:1011F000BA003D08B9003C08B8003B08B7005F2AB8
:101200004F08031D042905290E290030BA000030BB
:10121000B9000030B8000030B7005F2A4F08BF00A7
:10122000C0014008C20050083F02C100031CC203B5
:1012300041087F3EC90042080318013E003ECA0033
:101240003E08C7003D08C6003C08C5003B08C40076
:101250000030BE000030BD000030BC000030BB00DC
:101260000030CE000030CD000030CC000030CB008C
:10127000D0018429500803193E293F295F290130F4
:10128000BF000310C40DC50DC60DC70DBF0B41290E
:101290000130BF000310BB0DBC0DBD0DBE0DBF0B5B
:1012A0004A29CE1F5429552956293B140130BF0025
:1012B0000310CB0DCC0DCD0DCE0DBF0B58293A0828
:1012C0004702031D6D2939084602031D6D293808A0
:1012D0004502031D6D2937084402031C702971293A
:1012E00080294E173708C4023808031C380FC5027E
:1012F0003908031C390FC6023A08031C3A0FC7020B
:101300000130BF003F08D0071A305002031C892962
:101310008A293A29470846044504440403199129B7
:101320009229B1294B14B1290130BF000310BB0D24
:10133000BC0DBD0DBE0DBF0B9629CE1FA029A12946
:10134000A2293B140130BF000310CB0DCC0DCD0DF5
:10135000CE0DBF0BA429FF30C9070318CA0AFF30FE
:10136000CA07BD1FB429B5299429D001CE1FB929B8
:10137000BA29D629FF304B05BF00FF304C05C0000D
:10138000FF304D05C1007F304E05C20042084104C8
:1013900040043F040319CD29CE29D129D001D00A18
:1013A000D6293B1CD429D529D629CE295008031982
:1013B000DA29DB290C2A0130BB0700300318013081
:1013C000BC07003003180130BD070030031801309E
:1013D000BE073E1CEC29ED290C2A3B08BF003C0847
:1013E000C0003D08C1003E08C2000130C300420DEC
:1013F000C20CC10CC00CBF0CC30BF7294208BE00C5
:101400004108BD004008BC003F08BB000130C907CF
:101410000318CA0A0030CA074A08803AFF00803021
:101420007F02031D152AFF304902031C182A192ABE
:10143000272AFF3083120313C9000030CA0000308E
:10144000BE000030BD000030BC000030BB00831285
:1014500003134A08803AFF0080307F02031D322ABE
:10146000013049020318352A362A432A831203130E
:10147000C901CA010030BE000030BD000030BC0010
:101480000030BB00C801831203134908BF003F08A6
:10149000CF004F1C4C2A4D2A4F2ABD17532A7F30AC
:1014A000BF003F08BD054F08BF0003103F0CC00040
:1014B0004008BE004808BF003F08BE04F7280800E7
:1014C0007508803983120313A0002008A80075084E
:1014D000A0002007A1002108AA00F41F702A712A89
:1014E000722A2A142A080319762A772A872A2A0AAE
:1014F000031D7B2A7C2A842A0030F5000030F4008A
:101500000030F3000030F200F417F5018F2A0030AC
:10151000F5000030F4000030F3000030F2007908EC
:101520008039A0002008A900290828060319992A53
:101530009A2A9B2A28177908A0002007A1002108D1
:10154000A900F81FA42AA52AA62A291429080319E4
:10155000AA2AAB2ABB2A290A031DAF2AB02AB82A15
:101560000030F9000030F8000030F7000030F600DD
:10157000F817F901C32A0030F9000030F8000030F4
:10158000F7000030F6002A0829020318C82AC92AE1
:101590000D2B281FCC2ACD2AD12A8030A00020086C
:1015A000A8062A08A0002008AB002908A0002008EF
:1015B000AA002B08A0002008A9007208A00020089B
:1015C000AB007608A0002008F2002B08A00020083D
:1015D000F6007308A0002008AB007708A0002008E0
:1015E000F3002B08A0002008F7007408A0002008D2
:1015F000AB007808A0002008F4002B08A000200809
:10160000F8007508A0002008AB007908A0002008A9
:10161000F5002B08A0002008F900AB012908A00064
:10162000A1012108A3002A082002A200031CA30391
:101630002308803AFF0080307F02031D212B1A30DF
:101640002202031C242B252B622B750874047304BF
:101650007204031D2C2B2E2B01302F2B00308312F4
:101660000313A0002008AB000030F5000030F400A8
:101670000030F3000030F2002908A0002008AA0082
:101680006A2B2B1C442B452B4E2B2B08A000031040
:10169000200C0138A1002108AB00502B0310AB0C2B
:1016A000721C532B542B552BAB170130A000750D1A
:1016B000F50CF40CF30CF20CA00B572B0130A0002E
:1016C0002008AA078312031329082A02031C692B86
:1016D0006A2B412B281B6D2B6E2BB92B2A08031D5F
:1016E000722B732B7C2B0030F5000030F40000309F
:1016F000F3000030F200E72C7608F20777080311B8
:101700000318013E0319852BF3077808031103180A
:10171000013E03198C2BF407790803110318013ECD
:101720000319932BF507751C962B972B6D2C2B1CEF
:101730009A2B9B2BA42B2B08A0000310200C013804
:10174000A1002108AB00A62B0310AB0C721CA92B27
:10175000AA2BAB2BAB170130A000750DF50CF40CC8
:10176000F30CF20CA00BAD2B0130A0002008AA074F
:101770006D2C7508803AFF007908803A7F02031DBE
:10178000CB2B78087402031DCB2B77087302031D43
:10179000CB2B760872020318CE2BCF2B272CFF30D1
:1017A000A000FF30A100FF30A200FF30A3007608A8
:1017B000A4007708A5007808A6007908A700720899
:1017C000A4027308031C730FE62BE72BA502740811
:1017D000031C740FEC2BED2BA6027508031C750F70
:1017E000F22BF32BA7022408A00725080318250FC6
:1017F000FA2BFB2BA10726080318260F002C012C1F
:10180000A20727080318270AA3072308F5002208C0
:10181000F4002108F3002008F2008030A000200826
:10182000A806AB09AB0A2B08031D172C182C352C66
:101830000130F207003003180130F30700300318BD
:101840000130F407003003180130F507352C760815
:10185000F2027708031C770FF3027808031C780F55
:10186000F4027908031C790FF502750874047304F7
:101870007204031D3C2C3D2C692C2B08031D412CAC
:10188000422C692C0030F5000030F4000030F300E9
:101890000030F200E72C0130A0000310F20DF30D30
:1018A000F40DF50DA00B4D2CAB1F572C582C592CBB
:1018B00072142B1C5C2C5D2C602C0314AB0D622C61
:1018C0000310AB0D2A080319662C672C692C013014
:1018D000AA02F41F6C2C6D2C4B2CA901AB1F712C90
:1018E000722C802C2B087F390319772C782C7B2CB9
:1018F000A901A90A802C721C7E2C7F2C802C782CAC
:1019000029080319842C852CB92C0130F2070030EA
:1019100003180130F307003003180130F4070030DA
:1019200003180130F507751C962C972CB92C7208FA
:10193000A0007308A1007408A2007508A30001307C
:10194000A400230DA30CA20CA10CA00CA40BA12C91
:101950002308F5002208F4002108F3002008F20013
:101960002A0A0319B42CB52CB92C0130A000200888
:10197000AA072A0A0319BD2CBE2CC32C2A08031D52
:10198000C22CC32CD12C0030F5000030F400003004
:10199000F3000030F2002A08031DCF2CD02CD12CEC
:1019A000A8012A1CD42CD52CD72CF417DB2C7F3083
:1019B000A0002008F4052A08A0000310200CA100B4
:1019C0002108F500A81FE52CE62CE72CF5170800E8
:1019D0000A168A114E230A128A150A168A11102530
:1019E0000A128A150A168A1191220A128A150A16F3
:1019F0008A1168220A128A155130F2000030F30071
:101A00000A168A117A220A128A150030F200F300AF
:101A10000A168A117A230A128A157208831203138E
:101A200086000A168A1171220A128A15023083165C
:101A30000313E4000430E300B930E200E20B1E2D92
:101A4000E30B1E2DE40B1E2D252D0A168A1168228C
:101A50000A128A158030F2000030F3000A168A114B
:101A60007A220A128A15F330F2000030F3000A16C7
:101A70008A117A220A128A150A168A1171220A120A
:101A80008A15023083160313E4000430E300B930F2
:101A9000E200E20B492DE30B492DE40B492D502DBB
:101AA0000A168A1168220A128A158130F200003063
:101AB000F3000A168A117A220A128A150030F200FF
:101AC000F3000A168A117A230A128A157208831201
:101AD000031388000A168A1171220A128A1502302D
:101AE00083160313E4000430E300B930E200E20B94
:101AF000772DE30B772DE40B772D7E2D0A168A11B7
:101B000068220A128A159130F2000030F3000A169A
:101B10008A117A220A128A150030F200F3000A169E
:101B20008A117A230A128A15720883120313850018
:101B30000A168A1171220A128A15023083160313BB
:101B4000E4000430E300B930E200E20BA52DE30B22
:101B5000A52DE40BA52DAC2D8312031305088316C8
:101B60000313E200E301E401E501650883120313B6
:101B7000AC0083160313640883120313AB008316AF
:101B80000313630883120313AA0083160313620866
:101B900083120313A90000300A168A1144270A127F
:101BA0008A15831203132C0883160313A7008312CC
:101BB00003132B0883160313A600831203132A08AA
:101BC00083160313A5008312031329088316031336
:101BD000A40083120313060883160313E2006208AD
:101BE000AD0083120313080883160313E200620892
:101BF000AE000A168A1191220A128A150230831643
:101C00000313E2006208F60001300A168A115F240D
:101C10000A128A150130F7008030F8000A168A117E
:101C200019240A128A15083083160313E200620889
:101C3000F60001300A168A115F240A128A15043050
:101C4000F7008030F8000A168A1119240A128A1542
:101C50000E3083160313E2006208F60001300A1604
:101C60008A115F240A128A150730F7008030F800C5
:101C70000A168A1119240A128A15063083160313CC
:101C8000E4001330E300AD30E200E20B452EE30B3D
:101C9000452EE40B452EF601F60A02300A168A118B
:101CA0005F240A128A15C330F7000030F8000A16C4
:101CB0008A1119240A128A15043083160313E200CC
:101CC0006208F60002300A168A115F240A128A1589
:101CD0000C30F7008030F8000A168A1119240A1215
:101CE0008A15073083160313E2006208F6000230FB
:101CF0000A168A115F240A128A15B930F7000030DB
:101D0000F8000A168A1119240A128A150B30831654
:101D10000313E2006208F60002300A168A115F24FB
:101D20000A128A150A30F7008030F8000A168A1164
:101D300019240A128A150E3083160313E200620872
:101D4000F60002300A168A115F240A128A15AF3093
:101D5000F7000030F8000A168A1119240A128A15B1
:101D60000B3083160313E4002630E3005D30E200FD
:101D7000E20BB82EE30BB82EE40BB82E8316031338
:101D80002E08B33EE2006208AC000030A300003031
:101D9000A2000030A1000030A000403083120313E5
:101DA000D400A030D3000030D2000030D100433046
:101DB000BA007F30B9000030B8000030B700831699
:101DC00003132D08E200E301E401E5016508831235
:101DD0000313AC0083160313640883120313AB00D0
:101DE00083160313630883120313AA0083160313D5
:101DF000620883120313A90001300A168A114427CE
:101E00000A128A15831203132C08BE002B08BD008A
:101E10002A08BC002908BB000A128A1583200A126E
:101E20008A15831203133A08D8003908D7003808F6
:101E3000D6003708D5000A128A1180240A128A15A2
:101E400083120313540883160313A300831203138E
:101E5000530883160313A200831203135208831638
:101E60000313A10083120313510883160313A00068
:101E70002308D0002208CF002108CE002008CD0082
:101E80000230D1000030D200C3300A128A111E2065
:101E90000A128A15831603132C08E200E301E401F9
:101EA000E501650883120313AC008316031364086D
:101EB00083120313AB008316031363088312031307
:101EC000AA0083160313620883120313A9000030CB
:101ED0000A168A1144270A128A15831203132C0842
:101EE00083160313E900831203132B0883160313CD
:101EF000E800831203132A0883160313E7008312F2
:101F00000313290883160313E6006908D000680844
:101F1000CF006708CE006608CD000230D100003047
:101F2000D200B9300A128A111E200A128A158316AD
:101F300003132708F5002608F4002508F3002408F9
:101F4000F2000A128A1507200A128A1572080A1668
:101F50008A116D250A128A1583160313E20062089E
:101F6000AB002B08E200E301E401E5016508831200
:101F70000313AC0083160313640883120313AB002E
:101F800083160313630883120313AA008316031333
:101F9000620883120313A90000300A168A1144272D
:101FA0000A128A15831203132C0883160313E900FF
:101FB000831203132B0883160313E8008312031301
:101FC0002A0883160313E7008312031329088316D4
:101FD0000313E6006908D0006808CF006708CE0048
:101FE0006608CD000230D1000030D200AF300A12B6
:101FF0008A111E200A128A15F72C0A128A110C283F
:1024C00064008001840A0406031900340406612AAA
:1024D0000A168A1184220A168A118316031311140C
:1024E00008000A168A1184220A168A118316031319
:1024F000111508000A168A1184220A168A11720818
:102500008312031393000800831603131419892AF6
:102510008A2A842A11081F39031D8F2A902A842AA7
:10252000080000300A168A119E220A168A1101300C
:102530000A168A119E220A168A110800F5008312D3
:102540000313091075080A168A11B8220A168A118F
:102550008312031389140B30F4006230F300F30B81
:10256000AF2AF40BAF2A000083120313891008006E
:10257000F200721CBC2ABD2AC12A8312031307155C
:10258000C42A831203130711F21CC72AC82ACA2AB5
:102590008714CB2A8710721DCE2ACF2AD12A07147E
:1025A000D22A0710F21DD52AD62AD82A8716D92A68
:1025B00087120800803083120313BA063E08F50024
:1025C0003D08F4003C08F3003B08F2003A08F9002B
:1025D0003908F8003808F7003708F6000A128A159B
:1025E00060220A168A11750883120313BA00740850
:1025F000B9007308B8007208B7000800F801F901C3
:1026000083120313251C052B062B0C2B2708F80718
:102610000318F90A2808F90701300310A70DA80DBF
:10262000FF3E031D0D2B01300310A60CA50CFF3E31
:10263000031D142B25082604031D1F2B202B002B04
:102640007908A6007808A500080083120313A400E7
:10265000A001A1017208F400F5017408A200750838
:10266000A300241C342B352B3B2B2208A007031876
:10267000A10A2308A10701300310A20DA30DFF3EFC
:10268000031D3C2B0310A40C2408031D482B492BCD
:10269000312B2108F3002008F200080083160317ED
:1026A0008801890183160313051085100511851112
:1026B000860188018701091089108312031385019F
:1026C0008601870188018901831603130F178F166E
:1026D0000F160F14003083120313A9000130A80055
:1026E0008630A700A030A6000A168A11A8230A1671
:1026F0008A1108000A168A1184220A168A11831682
:10270000031391150A168A1184220A168A1183125C
:1027100003131308F400F5017408F6007508F700B8
:102720000A168A1184220A168A1172037304031D81
:102730009A2B9B2B9F2B831603139112A22B83168C
:102740000313911611167708F3007608F2000800BB
:10275000283083120313940083160313910183120C
:1027600003132608AA002708AB002808AC00290894
:10277000AD0002300310AA0DAB0DAC0DAD0DFF3E48
:10278000031DBA2B2D08F5002C08F4002B08F300CC
:102790002A08F2000030F9007A30F8001230F70011
:1027A0000030F6000A168A11CF250A168A1172081F
:1027B000FF3E831603139300940187150716080044
:1027C000F60076080F39F3007308F4007608F03944
:1027D000F3007308F5008312031309147508F3005E
:1027E00004300310F30CFF3E031DF12B73080A168F
:1027F0008A11B8220A168A118312031389141A3017
:10280000F300F30B012C00008312031389107408EA
:102810000A168A11B8220A168A1183120313891420
:102820001A30F300F30B122C0000831203138910EB
:10283000080083120313A301A401422C2308770785
:10284000A1007808A0000318A00AA31F282CA00349
:10285000831203132008A2002208FF00210884002D
:102860000A128A11E1270A168A110A168A11E02330
:102870000A168A11013083120313A3070318A40A4E
:102880000030A40723087707A1007808A0000318E8
:10289000A00AA31F4C2CA003831203132008A2003C
:1028A0002208FF00210884000A128A11E1270A1673
:1028B0008A11003A031D5D2C5E2C1E2C0800831229
:1028C0000313A0002003031D662C672C8C2C7608B4
:1028D0007F3EF7007708A3002308F70004300310B9
:1028E000F70CFF3E031D6F2C7708F8007808A10055
:1028F00023080F39F7007708A20021080A168A1169
:102900009E220A168A118312031322080A168A11BC
:102910009E220A168A11B62C02302006031D912C25
:10292000922CB62C7608BF3EF7007708A300230848
:10293000F70004300310F70CFF3E031D9A2C7708B4
:10294000F8007808A10023080F39F7007708A200E3
:1029500021080A168A119E220A168A11831203136D
:1029600022080A168A119E220A168A110800F80106
:10297000F51FBB2CBC2CC32CF409F509F40A031970
:10298000F50AF801F80AF31FC62CC72CCC2CF20963
:10299000F309F20A0319F30A720873040319D12C1C
:1029A000D22C012DF701F70AE02C01300310F20DB3
:1029B000F30DFF3E031DD62C0130F6007608F70715
:1029C000F31FE32CE42CD52C73087502031DEA2CAD
:1029D00072087402031CED2CEE2CF42C7208F40225
:1029E0007308031CF503F50201300310F30CF20C1D
:1029F000FF3E031DF52C0130F702031D002D012DB4
:102A0000E42C78080319052D062D0B2DF409F50982
:102A1000F40A0319F50A7508F3007408F2000800B7
:102A200000300A168A11B8220A168A113430F700CB
:102A3000F130F600F60B1A2DF70B1A2D1F2D03306F
:102A40000A168A119E220A168A110D30F700FB30F1
:102A5000F600F60B292DF70B292D2E2D03300A1623
:102A60008A119E220A168A111D30F7009130F60055
:102A7000F60B382DF70B382D03300A168A119E22DB
:102A80000A168A1102300A168A119E220A168A1123
:102A900002300A168A119E220A168A1108300A1676
:102AA0008A119E220A168A1100300A168A119E2265
:102AB0000A168A110C300A168A119E220A168A11E9
:102AC00000300A168A119E220A168A1106300A164A
:102AD0008A119E220A168A110800F9003230F2008B
:102AE0000030F300790883120313A400A501240821
:102AF000F4002508F5000A168A1137260A168A11ED
:102B0000720883120313A6002608FB006430F2004B
:102B10000030F3007908A400A5012408F40025087A
:102B2000F5000A168A11B7240A168A117208831250
:102B30000313A6002608FA000A30F2000030F30062
:102B40007A08A400A5012408F4002508F5000A1657
:102B50008A1137260A168A11720883120313A600F7
:102B6000260883160313AA000A30F2000030F3008F
:102B70007A0883120313A400A5012408F400250891
:102B8000F5000A168A11B7240A168A1172088312F0
:102B90000313A600260883160313A90008000030BB
:102BA00083120313A4000030A3000030A200003001
:102BB000A10075087404730472040319E02DE12D5B
:102BC0002E2EA501A50AF12D0130A0000310F20D53
:102BD000F30DF40DF50DA00BE62D0130A00020083B
:102BE000A507F51FF42DF52DE42D0130A0000310ED
:102BF000A10DA20DA30DA40DA00BF72D7508790250
:102C0000031D0C2E74087802031D0C2E7308770226
:102C1000031D0C2E72087602031C0F2E102E1F2E81
:102C20007208F6027308031C730FF7027408031C82
:102C3000740FF8027508031C750FF9022114013096
:102C40000310F50CF40CF30CF20CFF3E031D202EC8
:102C50000130A502031D2D2E2E2EF52D2408F50082
:102C60002308F4002208F3002108F2000800831270
:102C70000313A101F31F3D2E3E2E452EF209F30949
:102C8000F20A0319F30AA101A10AF51F482E492EE1
:102C9000522EF409F509F40A0319F50A0130F60079
:102CA0007608A106A201A301720873040319592E24
:102CB0005A2E912EA001A00A682E01300310F20DA9
:102CC000F30DFF3E031D5E2E0130F6007608A007CF
:102CD000F31F6B2E6C2E5D2E01300310A20DA30D81
:102CE000FF3E031D6D2E73087502031D792E7208B9
:102CF0007402031C7C2E7D2E842E7208F40273084D
:102D0000031CF503F502221401300310F30CF20C3E
:102D1000FF3E031D852E0130A002031D902E912E33
:102D20006C2E21080319952E962E9B2EA209A3091D
:102D3000A20A0319A30A2308F3002208F2000800DC
:102D40000030720583120313A00000307305A10048
:102D500080307405A2007F307505A300230822048B
:102D600021042004031DB52EB62EBE2E0030F50022
:102D70000030F4000030F3000030F200003076053F
:102D8000A00000307705A10080307805A2007F30D8
:102D90007905A3002308220421042004031DD12E59
:102DA000D22EDA2E0030F9000030F8000030F700A3
:102DB0000030F600F51FDD2EDE2E022F0030A000C1
:102DC0000030A1000030A2008030A3007208A002F1
:102DD0007308031C730FED2EEE2EA1027408031C62
:102DE000740FF32EF42EA2027508031C750FF92E32
:102DF000FA2EA3022308F5002208F4002108F300AC
:102E00002008F200F91F052F062F2A2F0030A000FE
:102E10000030A1000030A2008030A3007608A0029C
:102E20007708031C770F152F162FA1027808031CB3
:102E3000780F1B2F1C2FA2027908031C790F212F5A
:102E4000222FA3022308F9002208F8002108F70026
:102E50002008F6008030F5068030F9067908750202
:102E6000031D3C2F78087402031D3C2F7708730262
:102E7000031D3C2F7608720203183F2F402F422F6C
:102E80000310432F0314080083120313B100310809
:102E900003194B2F4C2F602FAC1F4F2F502F602F3B
:102EA0002909B3002A09B4002B09B5002C09B60082
:102EB000B30A0319B40A0319B50A0319B60A682F2D
:102EC0002C08B6002B08B5002A08B4002908B30066
:102ED0002C082B042A042904031D6F2F702F792F2F
:102EE0000030AC000030AB000030AA000030A90078
:102EF000FF2F9630AD002D08B2008B2F0130AD00B2
:102F00002D08B20701300310B60CB50CB40CB30C8D
:102F1000FF3E031D832FFE303605031D902F912F9A
:102F20007E2FAD2F0130AD002D08B2070130B30761
:102F3000003003180130B407003003180130B50722
:102F4000003003180130B60701300310B60CB50C81
:102F5000B40CB30CFF3E031DA52FFF303605031D37
:102F6000B22FB32F922FBF2F0130B2020130AD002C
:102F70000310B30DB40DB50DB60DAD0BB82FB51BC9
:102F8000C22FC32FC92F023032020318C82FC92FF6
:102F9000B42F3218CC2FCD2FD52FFF30B305FF30F3
:102FA000B4057F30B505FF30B6050310B20C32080A
:102FB000AD00AE01AF01B00118300310AD0DAE0D84
:102FC000AF0DB00DFF3E031DDD2F2D08B3042E08FD
:102FD000B4042F08B5043008B60431080319F12FE2
:102FE000F22FF72FAC1FF52FF62FF72FB617360855
:102FF000AC003508AB003408AA003308A90008006B
:04400E00D420FF3F7C
:00000001FF
