:020000040000FA
:060000000A128A110C280F
:10000800FE00030EF1000A08F2000A128A15032CFA
:100018000A128A110F28F801F901FA018312031351
:10002800D40183160313C901CA01CB01CC01CD0148
:10003800CE01CF01D00183010A128A118D2BFF0056
:1000480000308A007F08820728280A128A152C2B7C
:10005800831203132D088039B2003208B7002D0827
:10006800B2003207B3003308BD00AC1F3C283D285E
:100078003E283D143D0803194228432852283D0ACA
:10008800031D4728482850280030AD000030AC0038
:100098000030AB000030AA00AC175A280030AD0081
:1000A8000030AC000030AB000030AA0031088039C5
:1000B800B2003208B7063108B2003207B30033087D
:1000C800BC00B01F682869286A283C143C0803193A
:1000D8006E286F287E283C0A031D732874287C2804
:1000E8000030B1000030B0000030AF000030AE008A
:1000F800B01786280030B1000030B0000030AF00E3
:100108000030AE003C0803198A288B2890283D0847
:10011800031D8F28902899280030AD000030AC00CE
:100128000030AB000030AA008C2B2A08B20032083D
:10013800F30030080A128A15A8230A128A117408D3
:1001480083120313C3007308C2004208B200B3014C
:10015800B401B5013508BB003408BA003308B9004A
:100168003208B8004308B200B301B401B50135083C
:10017800C1003408C0003308BF003208BE002B0895
:10018800B2003208F3002F080A128A15A8230A12AF
:100198008A11740883120313C3007308C20042084B
:1001A800B200B301B401B5013208B807330803112E
:1001B8000318013E0319E128B9073408031103188D
:1001C800013E0319E828BA07350803110318013E50
:1001D8000319EF28BB074308B200B301B401B50106
:1001E8003208BE07330803110318013E0319FD281E
:1001F800BF07340803110318013E03190429C00777
:10020800350803110318013E03190B29C1072C08EF
:10021800B2003208F3002E080A128A15A8230A121F
:100228008A11740883120313C3007308C2004208BA
:10023800B200B301B401B5013208B807330803119D
:100248000318013E03192929B907340803110318B3
:10025800013E03193029BA07350803110318013E76
:1002680003193729BB074308B200B301B401B5012C
:100278003208BE07330803110318013E0319452944
:10028800BF07340803110318013E03194C29C0079E
:10029800350803110318013E03195329C107083013
:1002A800B2000310B80DB90DBA0DBB0DB20B55292C
:1002B8002B08B2003208F3002E080A128A15A82368
:1002C8000A128A11740883120313C3007308C20048
:1002D8004208B2004308B300B401B5013208B807B8
:1002E800330803110318013E03197B29B9073408A1
:1002F80003110318013E03198229BA0735080311AF
:100308000318013E03198929BB072A08B2003208DD
:10031800F3002F080A128A15A8230A128A117408F2
:1003280083120313C3007308C2004208B2004308D3
:10033800B300B401B5013208B80733080311031834
:10034800013E0319A829B907340803110318013E0F
:100358000319AF29BA07350803110318013E031919
:10036800B629BB070830B2000310B80DB90DBA0D95
:10037800BB0DB20BB8292A08B2003208F3002E08C8
:100388000A128A15A8230A128A1174088312031301
:10039800C3007308C2004208B2004308B300B401A6
:1003A800B5013208B807330803110318013E0319D1
:1003B800DE29B907340803110318013E0319E5299A
:1003C800BA07350803110318013E0319EC29BB07C6
:1003D8002B08B2003208F30030080A128A15A82345
:1003E8000A128A11740883120313C3007308C20027
:1003F8004208B2004308B300B401B5013208BE0791
:10040800330803110318013E03190B2ABF073408E8
:1004180003110318013E0319122AC00735080311F6
:100428000318013E0319192AC1072C08B200320823
:10043800F3002F080A128A15A8230A128A117408D1
:1004480083120313C3007308C2004208B2004308B2
:10045800B300B401B5013208BE073308031103180D
:10046800013E0319382ABF07340803110318013E57
:1004780003193F2AC007350803110318013E031961
:10048800462AC1072C08B2003208F30030080A12C5
:100498008A15A8230A128A11740883120313C30049
:1004A8007308C2004208B2004308B300B401B501A2
:1004B80008300310B20DB30DB40DB50DFF3E031D8A
:1004C8005D2A3208BE07330803110318013E0319D9
:1004D8006E2ABF07340803110318013E0319752A51
:1004E800C007350803110318013E03197C2AC10708
:1004F8003808B2003908B3003A08B4003B08B50020
:1005080018300310B50CB40CB30CB20CFF3E031D2D
:10051800852A3208BE07330803110318013E031960
:10052800962ABF07340803110318013E03199D2AB0
:10053800C007350803110318013E0319A42AC1078F
:100548000830B2000310B80DB90DBA0DBB0DB20BCF
:10055800A62A3D083C07B200B301B30D3208823E1B
:10056800C20033080318013EFF3EC300D82A0130F9
:10057800B2000310BE0DBF0DC00DC10DB20BBD2AD8
:10058800BB1FC72AC82AC92A3E140130B20003106B
:10059800B80DB90DBA0DBB0DB20BCB2AFF30C2078F
:1005A8000318C30AFF30C307C01FDB2ADC2ABB2A93
:1005B800BC01BB1FE02AE12AFD2AFF303805B20042
:1005C800FF303905B300FF303A05B4007F303B05F2
:1005D800B50035083404330432040319F42AF52A23
:1005E800F82ABC01BC0AFD2A3E1CFB2AFC2AFD2A6B
:1005F800F52A3C080319012B022B332B0130BE07C7
:10060800003003180130BF07003003180130C0075D
:10061800003003180130C107411C132B142B332B56
:100628003E08B2003F08B3004008B4004108B500D6
:100638000130B600350DB50CB40CB30CB20CB60BCA
:100648001E2B3508C1003408C0003308BF0032082B
:10065800BE000130C2070318C30A0030C3074308AD
:10066800803AFF0080307F02031D3C2BFF3042029E
:10067800031C3F2B402B4B2B7F3083120313C100ED
:100688008030C0000030BF000030BE00802B8312D5
:1006980003134308803AFF0080307F02031D562B66
:1006A800013042020318592B5A2B662B0030831253
:1006B8000313C1000030C0000030BF000030BE008E
:1006C800B701802B831203134208B2003208BD0021
:1006D800FF30BE05FF30BF057F30C0050030C105C3
:1006E8003D1C772B782B792BC0173D08B2000310DF
:1006F800320CB3003308C1003708B2003208C10415
:100708004108AD004008AC003F08AB003E08AA0015
:1007180008000A128A1573240A128A110A128A1505
:10072800F9240A128A110A128A11EF270A128A1169
:10073800F701F70A01300A128A1547250A128A11A9
:10074800A43083120313A0008030A1000A128A1576
:10075800D1230A128A118316031350088312031334
:10076800CF00D001D101D2015208F6005108F5009E
:100778005008F4004F08F30001300A128A15442784
:100788000A128A11760883120313B1007508B000A3
:100798007408AF007308AE003C30AD00A030AC0068
:1007A8009030AB002E30AA000A128A112C200A12AF
:1007B8008A11831203132D08C7002C08C6002B08C2
:1007C800C5002A08C4000A128A15C8260A128A1106
:1007D800831203134408D300530883160313CA0073
:1007E8004F0883120313CF00D001D101D201520860
:1007F800F6005108F5005008F4004F08F3000130E6
:100808000A128A1544270A128A11760883120313DA
:10081800B1007508B0007408AF007308AE003C3032
:10082800AD00A030AC009030AB002E30AA000A1208
:100838008A112C200A128A11831203132D08C7006B
:100848002C08C6002B08C5002A08C4000A128A15FD
:10085800C8260A128A11831203134408D3005308C6
:1008680083160313CB00B53083120313CF004F0850
:10087800B400831603134A0883120313D000D1016E
:100888005008B5005108B600A0300A128A1587230F
:100898000A128A11BD3083120313CF004F08B40027
:1008A800831603134B0883120313D000D101500899
:1008B800B5005108B600B4300A128A1587230A1207
:1008C8008A11023083120313CF004F08F700023059
:1008D8000A128A1547250A128A11A03083120313B7
:1008E800A0000030A1000A128A15D1230A128A1129
:1008F800B43083120313A0000030A1000A128A1535
:10090800D1230A128A11203083120313A000203049
:10091800A1000A128A15D1230A128A1106308312FD
:100928000313D1001330D000AD30CF00CF0B9A2C79
:10093800D00B9A2CD10B9A2C831203139F18A52C39
:10094800A62CB02C203083120313CF00CF0BAA2C77
:100958000000831203139F148316031350080A120E
:100968008A116E270A128A11023083120313D100EA
:100978004530D000A930CF00CF0BC02CD00BC02CF5
:10098800D10BC02C82300A128A154F230A128A1101
:10099800023083120313D1004530D000A930CF00B4
:1009A800CF0BD42CD00BD42CD10BD42C83160313FF
:1009B8004E08831203139900023083120313D100E7
:1009C8004530D000A930CF00CF0BE82CD00BE82C55
:1009D800D10BE82C2E3083120313990002308312B6
:1009E8000313D1004530D000A930CF00CF0BFA2C2B
:1009F800D00BFA2CD10BFA2C831603134D08831253
:100A080003139900023083120313D1004530D0003C
:100A1800A930CF00CF0B0E2DD00B0E2DD10B0E2DE4
:100A2800831603134C0883120313990002308312B0
:100A38000313D1004530D000A930CF00CF0B222DB1
:100A4800D00B222DD10B222D80300A128A154F236C
:100A58000A128A11831603134F080A128A116E2785
:100A68000A128A11023083120313D1004530D000D4
:100A7800A930CF00CF0B3E2DD00B3E2DD10B3E2DF4
:100A880093300A128A154F230A128A1102308312F0
:100A98000313D1004530D000A930CF00CF0B522D21
:100AA800D00B522DD10B522D831603134E088312EF
:100AB80003139900023083120313D1004530D0008C
:100AC800A930CF00CF0B662DD00B662DD10B662D2C
:100AD8002E30831203139900023083120313D100BE
:100AE8004530D000A930CF00CF0B782DD00B782D12
:100AF800D10B782D831603134D0883120313990025
:100B0800023083120313D1004530D000A930CF0042
:100B1800CF0B8C2DD00B8C2DD10B8C2D8316031362
:100B28004C08831203139900023083120313D10077
:100B38004530D000A930CF00CF0BA02DD00BA02D71
:100B4800D10BA02D80300A128A154F230A128A1160
:100B58008316031349080A128A116E270A128A118A
:100B6800831603134E080A128A156A230A128A1179
:100B7800831603134D080A128A156A230A128A116A
:100B8800831603134C080A128A156A230A128A115B
:100B9800023083120313D1004530D000A930CF00B2
:100BA800CF0BD42DD00BD42DD10BD42D34300A1229
:100BB8008A154F230A128A11023083120313D100B7
:100BC8004530D000A930CF00CF0BE82DD00BE82D51
:100BD800D10BE82D0B300A128A154F230A128A11FD
:100BE800023083120313D1004530D000A930CF0062
:100BF800CF0BFC2DD00BFC2DD10BFC2D5C300A1239
:100C08008A154F230A128A11831203138C1E0D2E84
:100C18000E2E082E1A08CF004F0883160313C8009B
:100C28002B304806031D192E1A2E242E4908013E82
:100C380083120313CF004F0883160313C900AF2B89
:100C48002D304806031D292E2A2E342E4908FF3E32
:100C580083120313CF004F0883160313C900AF2B69
:100C6800AF2B0A128A110C2883120313B300572FD3
:100C7800253032060319412E422E682E330A84008D
:100C8800831300080319492E4A2E592E3208AB0047
:100C98002B08F300330A840000080A128A11232063
:100CA8000A128A11831203133B2E3208AB00330851
:100CB8008400000884002B0880000130AB00330852
:100CC80084002B0880073B2EAE010130A907FF30B6
:100CD800290784000A128A150A200A128A11B2000A
:100CE800AB00AC012C08003A03197B2E572F2B08B8
:100CF800003A03196B2F643A0319862E0D3A03192B
:100D0800862E572F2A08840083130008AB00023070
:100D180080072B0884000008B000840A0008B1008E
:100D2800B11F972E982EA12E0330AB002B08AE04CE
:100D3800B009B109B00A0319B10AB201B20A3208FE
:100D4800AB002B07013E84000A128A150A200A12FA
:100D58008A11AC000A128A150A200A128A11AD00FB
:100D68002D083102031DBA2E2C0830020318BD2E9F
:100D7800BE2EBF2EC92E0130AB002B08B20705309E
:100D88003206031DC82EC92EA32E2E0803390319B7
:100D9800CE2ECF2EF22E330A8400831300080319B7
:100DA800D62ED72EE42E2D30AB002B08F300330AB5
:100DB800840000080A128A1123200A128A11F22ECE
:100DC8002D30AB0033088400000884002B08800015
:100DD8000130AB00330884002B088007831203130B
:100DE8003208AB002B08AF004C2F0A30A3000030AC
:100DF800A4002F08AB002B07013E84000A128A15B5
:100E08000A200A128A11F3000A128A150A200A1205
:100E18008A11F4003108F6003008F5000A128A1524
:100E2800B3240A128A11740883120313A6007308E4
:100E3800A5000A128A1537240A128A11831203138D
:100E48002308303EAC002C08B200330A8400831318
:100E580000080319302F312F3E2F3208AB002B0822
:100E6800F300330A840000080A128A1123200A12A8
:100E78008A114C2F3208AB00330884000008840024
:100E88002B0880000130AB00330884002B08800752
:100E9800FF3083120313AB002B08AF072F0A031D83
:100EA800562F572FF92E013083120313A907FF304D
:100EB800290784000A128A150A200A128A11AB002F
:100EC8002B08B2003208031D6A2F6B2F3C2EA90194
:100ED800AA01080083120313A7006430F30000304E
:100EE800F4002708A400A5012408F5002508F60049
:100EF8000A128A155F260A128A11730883120313CD
:100F0800A600260883160313CE006430F3000030D1
:100F1800F400831203132708A400A5012408F50090
:100F28002508F6000A128A159F250A128A117308E5
:100F380083120313A6002608F8000A30F3000030D5
:100F4800F4007808A400A5012408F5002508F60097
:100F58000A128A155F260A128A117308831203136C
:100F6800A600260883160313CD000A30F3000030CC
:100F7800F400780883120313A400A5012408F500DF
:100F88002508F6000A128A159F250A128A11730885
:100F980083120313A600260883160313CC004E08F9
:100FA800303E83120313A400240883160313CE00D3
:100FB8004D08303E83120313A4002408831603133C
:100FC800CD004C08303E83120313A4002408831676
:100FD8000313CC00080000300A128A1535230A12C0
:100FE8008A1101300A128A1535230A128A1108005B
:10100000FF1B0A2883137F1883170008840A03191B
:10101000FF0A080008308A000408840A82070034A6
:10102000013400340A34003464340034E8340334C6
:10103000103427340D34203453346934203464346C
:101040006534733465346134203464346934733402
:101050006D3469346E3475346934723420346334D9
:101060006F346E347434613464346F3472342C34BD
:1010700020346F347034723469346D346134203408
:101080002D340D3400340D3420345334693420347D
:1010900064346534733465346134203461347534B8
:1010A0006D3465346E347434613472342034633496
:1010B0006F346E347434613464346F3472342C346D
:1010C00020346F347034723469346D3461342034B8
:1010D0002B340D3400340D3420345334693420342F
:1010E0006E346F3420346434653473346534613461
:1010F00020347234653461346C3469347A34613448
:10110000723420346E3461346434613420346F348A
:101110007034723469346D34613420342A340D34BF
:101120000034563461346C346F3472342034643497
:1011300065346C34203450344F34543431343A34C0
:101140000D340034563461346C346F3472342034CE
:10115000643465346C34203450344F345434323475
:101160003A340D34003453345F3431343A3420345B
:10117000203453345F3432343A34203420345334FE
:101180005F3433343A3400342534643420345634F4
:101190002034203420340034253464342034563450
:0411A00020340034C3
:10164C00F30073088312031388000800831203133A
:10165C000C1E312B322B2C2B730899000800F60032
:10166C0083120313091076080A128A1526230A120C
:10167C008A158312031309150630F5003030F40077
:10168C00F40B462BF50B462B0000831203130911A8
:10169C00080083120313B700B8010130B4003408FA
:1016AC00B9007030B4003408B6003708B400340800
:1016BC00A9003630B5003508AA0038300A128A1154
:1016CC0038260A128A150800F5007508F40074080B
:1016DC00F6007608F4007408F7008312031309145B
:1016EC0077080A128A1526230A128A158312031305
:1016FC0009150D30F400F40B812B8312031309111F
:10170C00080083120313B9003908B7003708BB006F
:10171C00BC013530B7003708BA003408B7003708B9
:10172C00A9003A30B8003808AA003B300A128A11D6
:10173C0038260A128A15831203133B08840083137C
:10174C008001080083120313A400A001A1017308F7
:10175C00F500F6017508A2007608A300241CB72B2F
:10176C00B82BBE2B2208A0070318A10A2308A10737
:10177C0001300310A20DA30DFF3E031DBF2B031060
:10178C00A40C2408031DCB2BCC2BB42B2108F40068
:10179C002008F300080083120313A201A301F02B0D
:1017AC0022082007840023080318230A2107FF00BE
:1017BC000A128A1500200A128A150A128A156A233F
:1017CC000A128A15013083120313A2070318A30A05
:1017DC000030A30722082007840023080318230ADB
:1017EC002107FF000A128A1500200A128A15003AF6
:1017FC00031D012C022CD62B0800831203130C1F83
:10180C00082C092C2E2C1F0CF000700C0F39003AF0
:10181C00031D112C122C1D2C1F08C33904389F00DA
:10182C001E08F000700883160313D0002E2C1F0C1A
:10183C00F000700C0F39013A031D252C262C2E2C90
:10184C00C3309F051E08F000700883160313CF00E9
:10185C0083120C1372088A00710E8300FE0E7E0E2A
:10186C000900831203132308240403193E2C3F2C74
:10187C006E2CA801A80A4D2C01300310A30DA40D49
:10188C00FF3E031D432C0130A7002708A807A41F07
:10189C00502C512C422C24082602031D572C2308B3
:1018AC002502031C5A2C5B2C612C2308A50224084E
:1018BC00031CA603A60201300310A40CA30CFF3ECC
:1018CC00031D622C0130A802031D6D2C6E2C512CB3
:1018DC002608A4002508A30008000330831603176C
:1018EC0088008316031305148514880189010F12CF
:1018FC008F160F170F140C17831203130C138B175F
:10190C000B17831603138C120C128312031385010D
:10191C00860187018801890101300A128A15FA258E
:10192C000A128A1583160313181218158316031737
:10193C008711193083160313990001309A00831212
:10194C0003139817181318168316031318139816E5
:10195C00831203138C120C12080083120313A101BF
:10196C00A201730874040319BC2CBD2CF42CA00127
:10197C00A00ACB2C01300310F30DF40DFF3E031D18
:10198C00C12C0130F7007708A007F41FCE2CCF2C08
:10199C00C02C01300310A10DA20DFF3E031DD02C55
:1019AC0074087602031DDC2C73087502031CDF2CF3
:1019BC00E02CE72C7308F5027408031CF603F602FE
:1019CC00211401300310F40CF30CFF3E031DE82C22
:1019DC000130A002031DF32CF42CCF2C2208F400B0
:1019EC002108F300080000300A128A1526230A1277
:1019FC008A151A3083120313A100F730A000A00B34
:101A0C00052DA10B052D0A2D30300A128A15352310
:101A1C000A128A15073083120313A1007C30A00030
:101A2C00A00B162DA10B162D000030300A128A15B2
:101A3C0035230A128A15413083120313A000A00B20
:101A4C00252D282D30300A128A1535230A128A15B5
:101A5C003C300A128A1535230A128A1508300A12EC
:101A6C008A1535230A128A1501300A128A15352374
:101A7C000A128A1506300A128A1535230A128A159B
:101A8C00080083120313A2002203031D4E2D4F2DB9
:101A9C00742D77087F3EA0002008A5002508A00023
:101AAC0004300310A00CFF3E031D572D2008A1008D
:101ABC002108A30025080F39A0002008A400230842
:101ACC000A128A1535230A128A1583120313240865
:101ADC000A128A1535230A128A159E2D0230220607
:101AEC00031D792D7A2D9E2D7708BF3EA00020086E
:101AFC00A5002508A00004300310A00CFF3E031D18
:101B0C00822D2008A1002108A3002508F039A0008F
:101B1C002008A40023080A128A1535230A128A15F4
:101B2C008312031324080A128A1535230A128A1504
:101B3C00080083120313A101F61FA52DA62DAD2DB0
:101B4C00F509F609F50A0319F60AA101A10AF41F11
:101B5C00B02DB12DB62DF309F409F30A0319F40ACB
:101B6C00730874040319BB2DBC2DEB2DA001A00A26
:101B7C00CA2D01300310F30DF40DFF3E031DC02DD3
:101B8C000130F7007708A007F41FCD2DCE2DBF2D07
:101B9C0074087602031DD42D73087502031CD72D0F
:101BAC00D82DDE2D7308F5027408031CF603F6021B
:101BBC0001300310F40CF30CFF3E031DDF2D01303C
:101BCC00A002031DEA2DEB2DCE2D21080319EF2DBC
:101BDC00F02DF52DF509F609F50A0319F60A760824
:101BEC00F4007508F3000800F500482EC33083128A
:101BFC0003139F052130F300F30B022E8312031302
:101C0C001F139F131F14831603139F139F121F126E
:101C1C005E2EC330831203139F052130F300F30BA8
:101C2C00152E831203131F179F131F1483160313F0
:101C3C009F139F121F125E2EC330831203139F0536
:101C4C002130F300F30B282E831203131F139F175D
:101C5C001F14831603139F139F121F125E2EC33083
:101C6C00831203139F052130F300F30B3B2E8312D9
:101C7C0003131F179F171F14831603139F139F1211
:101C8C001F125E2E7508F300F4017408003A031954
:101C9C00502E5E2E7308003A0319FC2D013A0319DD
:101CAC000F2E033A0319222E013A0319352E5E2EFC
:101CBC00080083120313A101F41F652E662E6D2EEE
:101CCC00F309F409F30A0319F40AA101A10AF61F96
:101CDC00702E712E7A2EF509F609F50A0319F60AFB
:101CEC000130F7007708A106A201A3017308740460
:101CFC000319812E822EB92EA001A00A902E01303C
:101D0C000310F30DF40DFF3E031D862E0130F7007A
:101D1C007708A007F41F932E942E852E0130031004
:101D2C00A20DA30DFF3E031D952E74087602031D14
:101D3C00A12E73087502031CA42EA52EAC2E7308BD
:101D4C00F5027408031CF603F6022214013003108A
:101D5C00F40CF30CFF3E031DAD2E0130A002031D4D
:101D6C00B82EB92E942E21080319BD2EBE2EC32ECB
:101D7C00A209A309A20A0319A30A2308F400220842
:101D8C00F3000800031083120313460D470DC8001F
:101D9C004808CE004E08031DD42ED52EDE2E003062
:101DAC00C7000030C6000030C5000030C400432F0F
:101DBC004408C8004508C9004608CA004708CB00BB
:101DCC001F300310CB0CCA0CC90CC80CFF3E031DF2
:101DDC00E72E4808CC004C08CD00C617FF30C405D0
:101DEC00FF30C505FF30C6050030C7059630CE0262
:101DFC00CE1F012F022F1C2F4E08803A973E03183E
:101E0C00082F092F0A2FD52E01300310C70CC60C32
:101E1C00C50CC40CFF3E031D0B2F0130C800480835
:101E2C00CE07031D1A2F1B2F0A2F332F20304E02E3
:101E3C00031C212F222F2E2FD52E0130C80003106A
:101E4C00C40DC50DC60DC70DC80B252F0130CE0214
:101E5C004E08031D322F332F232F4D080319372F14
:101E6C00382F432FC409C509C609C709C40A031969
:101E7C00C50A0319C60A0319C70A080083120313FB
:101E8C00A400240803194B2F4C2F602FF61F4F2F43
:101E9C00502F602F7309A6007409A7007509A800BC
:101EAC007609A900A60A0319A70A0319A80A031997
:101EBC00A90A682F7608A9007508A8007408A7005D
:101ECC007308A6007608750474047304031D6F2F41
:101EDC00702F792F0030F6000030F5000030F40040
:101EEC000030F300FF2F9630A0002008A5008B2FA8
:101EFC000130A0002008A50701300310A90CA80C84
:101F0C00A70CA60CFF3E031D832FFE302905031DD5
:101F1C00902F912F7E2FAD2F0130A0002008A50708
:101F2C000130A607003003180130A7070030031852
:101F3C000130A807003003180130A9070130031045
:101F4C00A90CA80CA70CA60CFF3E031DA52FFF3057
:101F5C002905031DB22FB32F922FBF2F0130A502DD
:101F6C000130A0000310A60DA70DA80DA90DA00B04
:101F7C00B82FA81BC22FC32FC92F0230250203185C
:101F8C00C82FC92FB42F2518CC2FCD2FD52FFF300C
:101F9C00A605FF30A7057F30A805FF30A905031063
:101FAC00A50C2508A000A101A201A3011830031063
:101FBC00A00DA10DA20DA30DFF3E031DDD2F2008CA
:101FCC00A6042108A7042208A8042308A9042408AD
:101FDC000319F12FF22FF72FF61FF52FF62FF72FEE
:101FEC00A9172908F6002808F5002708F400260888
:041FFC00F3000800E6
:04400E00D420FF3F7C
:00000001FF
