:020000040000FA
:060000000A128A110C280F
:10000800FE00030EF7000A08F8000A128A112D28CC
:100018000A128A110F2883133030FD000030FE00C9
:10002800E730FF00203084000A128A11D8200A1213
:100038008A110A128A1106210A128A11FC00F0019B
:10004800F101F201F301F401F50183010A128A11A9
:10005800A9280B1D30283128452864308312031342
:100068008100891C382839283F28880189100914FB
:1000780075088800442888018914091074088800C4
:100088000B11831203130C1F4A284B285928FC0113
:10009800FC0A1E08F000F1001E0E0F39F20071086C
:1000A8000F39F100831203130C130B1C5C285D2815
:1000B8006B28061C6028612863280130F302861C1F
:1000C800662867286B280130F6007608F3070B10BE
:1000D80078088A00770E8300FE0E7E0E09005530E0
:1000E800831203139F0001308316031788008316B9
:1000F8000313850103308600831603178901013035
:10010800831603138500870188018901831203136D
:100118008501870188018901E8308B008316031364
:10012800161496149F018130831203139F000C1339
:10013800831603130C179F138430810064308312D5
:1001480003138100E8308B0008000A128A1173201B
:100158000A128A117C080A128A11F7200A128A11D7
:100168007208203E840083130008FB007B08F5001A
:100178007108203E84000008FB007B08F400730827
:10018800831203138700700873020318CC28CD2844
:10019800CF280915AE280911AE280A128A110C2891
:1001A8007E088A007F0882000A128A11D4200A1267
:1001B8008A118000840A04087D0603190034FF0AA6
:1001C8000319FE0AD8283F3406345B344F346634AA
:1001D8006D347D3407347F346F3477347C3439346C
:1001E8005E3479347134FA007A03031DFC28FD2843
:1001F80005290630F900F90BFF28000083120313C4
:060208009F140800013400
:04400E00D120FF3F7F
:00000001FF
