:020000040000FA
:060000000A128A110C280F
:10000800FE00030EF0000A08F1000A128A11D82D2A
:100018000A128A110F28FA01FB0183120313E9015E
:10002800EA01EB01EC0183160313A001A101A2016F
:10003800A301A401A501A601A701A801A9018301A3
:100048000A128A118D2EFF0000308A007F0882076D
:100058002C280A128A11B92E023083160313AC0019
:100068004530AB00A930AA00AA0B3828AB0B3828BA
:10007800AC0B38288316031324080A128A11B123FB
:100088000A128A113B300A128A1172260A128A1140
:10009800023083160313AC004530AB00A930AA0028
:1000A800AA0B5428AB0B5428AC0B54288312031307
:1000B8006C089900023083160313AC004530AB007E
:1000C800A930AA00AA0B6628AB0B6628AC0B6628D9
:1000D800831203136B089900023083160313AC00D4
:1000E8004530AB00A930AA00AA0B7828AB0B7828BA
:1000F800AC0B7828831203136A0899000230831620
:100108000313AC004530AB00A930AA00AA0B8A281B
:10011800AB0B8A28AC0B8A2862300A128A11722625
:100128000A128A1150300A128A1172260A128A118A
:10013800831203138C1EA128A2289C281A08D03EDB
:1001480083160313AA002A0883120313E900333025
:100158001A020318B028B1289C2864300A128A11A0
:1001680072260A128A11831203138C1EBC28BD281A
:10017800B7281A08D03E83160313AA002A08FA00E3
:100188000230831203136906031DCB28CC28D2281A
:1001980036301A020318D128D228B72826300A1276
:1001A8008A1172260A128A11831203138C1EDD2803
:1001B800DE28D8281A08D03E83160313AA002A0876
:1001C800A8000230831203136906031DEC28ED28EA
:1001D800F92805307A06031DF228F328F928363065
:1001E8001A020318F828F928D8286908831603136F
:1001F800AA00AB012A0883120313BA00831603135B
:100208002B0883120313BB007A0883160313AC0070
:10021800AD012C0883120313BC00831603132D08A9
:1002280083120313BD000A128A115F250A128A116C
:10023800831203133A0883160313AE002E08A60090
:100248002608AA00AB012A0883120313BA008316F2
:1002580003132B0883120313BB0083160313280808
:10026800AC00AD012C0883120313BC0083160313E2
:100278002D0883120313BD000A128A115F250A1282
:100288008A11831203133B0883160313A1008312F8
:1002980003133A0883160313A000023083160313CE
:1002A800AC004530AB00A930AA00AA0B5929AB0B0A
:1002B8005929AC0B592983160313210883120313F8
:1002C800B20083160313200883120313B1000B3006
:1002D8000A128A1172260A128A1183160313210838
:1002E800A3002008A200080083120313B000972A75
:1002F80025302F06031981298229A829300A84006C
:1003080083130008031989298A2999292F08A80025
:100318002808F200300A840000080A128A112720EF
:100328000A128A11831203137B292F08A8003008A8
:10033800840000088400280880000130A8003008E4
:100348008400280880077B29AB010130A607FF300D
:10035800260784000A128A1131230A128A11AF0073
:10036800A800A9012908003A0319BB29972A2808D7
:10037800003A0319AB2A643A0319C6290D3A03193E
:10038800C629972A2708840083130008A80002308A
:100398008007280884000008AD00840A0008AE0021
:1003A800AE1FD729D829E1290330A8002808AB04B3
:1003B800AD09AE09AD0A0319AE0AAF01AF0A2F089D
:1003C800A8002807013E84000A128A1131230A1264
:1003D8008A11A9000A128A1131230A128A11AA0065
:1003E8002A082E02031DFA2929082D020318FD29BF
:1003F800FE29FF29092A0130A8002808AF0705307F
:100408002F06031D082A092AE3292B080339031993
:100418000E2A0F2A322A300A84008313000803198F
:10042800162A172A242A2D30A8002808F200300A94
:10043800840000080A128A1127200A128A11322A17
:100448002D30A800300884000008840028088000A7
:100458000130A8003008840028088007831203139D
:100468002F08A8002808AC008C2A0A30A000003009
:10047800A1002C08A8002807013E84000A128A114E
:1004880031230A128A11F2000A128A1131230A1240
:100498008A11F3002E08F5002D08F4000A128A11BB
:1004A800DE240A128A11730883120313A300720848
:1004B800A2000A128A119C250A128A1183120313B8
:1004C8002008303EA9002908AF00300A84008313B1
:1004D80000080319702A712A7E2A2F08A800280804
:1004E800F200300A840000080A128A1127200A1232
:1004F8008A118C2A2F08A80030088400000884007C
:10050800280880000130A8003008840028088007E7
:10051800FF3083120313A8002808AC072C0A031D18
:10052800962A972A392A013083120313A607FF3027
:10053800260784000A128A1131230A128A11A80098
:100548002808AF002F08031DAA2AAB2A7C29A60178
:10055800A701080083120313A500B62A0130A000E2
:100568002008A507250884002030831300060319F6
:10057800BE2ABF2AB22A25088400093000060319BA
:10058800C62AC72AB22AA301A401A2012508840009
:100598002D300006031DD12AD22ADB2A0130A00003
:1005A8002008A2070130A0002008A5070D2B250868
:1005B80084002B300006031DE22AE32A0D2B0130AC
:1005C800A0002008A5070D2B83120313250884001B
:1005D8002408F3002308F2000A30F4000030F50084
:1005E8000A128A112C260A128A118313000872072C
:1005F80083120313A0000030031801307307A10011
:100608002008D03EA30021080318013EFF3EA400A5
:10061800E32A2508840000080A128A11A7260A126C
:100628008A110318182B192BE82A8312031322089E
:1006380003191F2B202B2C2B2309A0002409A10010
:10064800A00A0319A10A2008F8002108F900302B94
:100658002408F9002308F800080003308A00040879
:10066800840A82070034013400340A3400346434C4
:100678000034E83403341034273445346C342034DF
:100688006E3475346D34653472346F3420346534A7
:100698006C3465346734693464346F3420346534B9
:1006A80073343A3420342534643420340D3400341F
:1006B80049346E3467347234653473346134723457
:1006C800203455346E3469346434613464346534A8
:1006D80073343A3420340D340034563461346C3475
:1006E8006F3472342034643465346C3420346334A9
:1006F8006F346E347434613464346F3472343A3421
:100708000D34003449346E346734723465347334CC
:10071800613472342034433465346E34743465344F
:100728006E3461343A3420340D34003449346E3434
:100738006734723465347334613472342034443429
:100748006534633465346E34613473343A34203438
:100758000D340034253464340034F9006430F20078
:100768000030F300790883120313A400A5012408BC
:10077800F4002508F5000A128A111C240A128A11AD
:10078800720883120313A6002608EC006430F200F6
:100798000030F3007908A400A5012408F400250816
:1007A800F5000A128A1185240A128A117208831226
:1007B8000313A6002608FB000A30F2000030F300FD
:1007C8007B08A400A5012408F4002508F5000A12F6
:1007D8008A111C240A128A11720883120313A600B4
:1007E8002608EB000A30F2000030F3007B08A40072
:1007F800A5012408F4002508F5000A128A118524A9
:100808000A128A11720883120313A6002608EA0046
:100818006C08303EA4002408EC006B08303EA400AD
:100828002408EB006A08303EA4002408EA00080007
:1008380083120313A101F31F222C232C2A2CF20963
:10084800F309F20A0319F30AA101A10AF51F2D2CD5
:100858002E2C372CF409F509F40A0319F50A01308E
:10086800F6007608A106A201A30172087304031911
:100878003E2C3F2C762CA001A00A4D2C01300310F1
:10088800F20DF30DFF3E031D432C0130F6007608F0
:10089800A007F31F502C512C422C01300310A20D3D
:1008A800A30DFF3E031D522C73087502031D5E2C19
:1008B80072087402031C612C622C692C7208F40201
:1008C8007308031CF503F502221401300310F30C1E
:1008D800F20CFF3E031D6A2C0130A002031D752C8B
:1008E800762C512C210803197A2C7B2C802CA209F8
:1008F800A309A20A0319A30A2308F3002208F20095
:100908000800F801F51F892C8A2C912CF409F509A7
:10091800F40A0319F50AF801F80AF31F942C952C28
:100928009A2CF209F309F20A0319F30A72087304FC
:1009380003199F2CA02CCF2CF701F70AAE2C0130FD
:100948000310F20DF30DFF3E031DA42C0130F60039
:100958007608F707F31FB12CB22CA32C7308750285
:10096800031DB82C72087402031CBB2CBC2CC22CAF
:100978007208F4027308031CF503F5020130031032
:10098800F30CF20CFF3E031DC32C0130F702031DCC
:10099800CE2CCF2CB22C78080319D32CD42CD92CDC
:1009A800F409F509F40A0319F50A7508F30074083F
:1009B800F2000800F701F801720873040319E52C26
:1009C800E62C1D2DF901F90AF42C01300310F20D63
:1009D800F30DFF3E031DEA2C0130F6007608F907F7
:1009E800F31FF72CF82CE92C01300310F70DF80D44
:1009F800FF3E031DF92C73087502031D052D7208AF
:100A08007402031C082D092D102D7208F4027308B6
:100A1800031CF503F502771401300310F30CF20CF4
:100A2800FF3E031D112D0130F902031D1C2D1D2D44
:100A3800F82C7808F3007708F200080083160317EB
:100A48008801890183160313850106148614880119
:100A580083120313850186018701880189018316A2
:100A680003130F128F160F170F14811303309500FD
:100A780016149614181218158316031787111930AF
:100A880083160313990001309A00831203139817F1
:100A980018131816831603131813981683120313C2
:100AA8008C120C128B170B17831603138C120C1253
:100AB8000B148B150800783083120313BE003E0810
:100AC800B1003B08B3003A08B20053300A128A1149
:100AD80051260A128A11783083120313BE003E0889
:100AE800B1003D08B3003C08B2003F300A128A1139
:100AF80051260A128A113F3083120313BE003E08A2
:100B0800F20053300A128A1103260A128A1153304E
:100B18000A128A11AE220A128A1179088312031363
:100B2800E8007808E7006808BB006708BA00080012
:100B380083120313200821040319A32DA42DD32DF8
:100B4800A501A50AB22D01300310A00DA10DFF3E8D
:100B5800031DA82D0130A4002408A507A11FB52D49
:100B6800B62DA72D21082302031DBC2D2008220223
:100B7800031CBF2DC02DC62D2008A2022108031C6E
:100B8800A303A30201300310A10CA00CFF3E031D18
:100B9800C72D0130A502031DD22DD32DB62D230854
:100BA800A1002208A00008000B1CDB2DDC2DFC2D69
:100BB800831203130618E12DE22DEC2D831603137F
:100BC8002408013EA40025080318013E003EA500A4
:100BD80083128618F02DF12DFB2D8316031324089C
:100BE800FF3EA40025080318013EFF3EA5000B1098
:100BF80071088A00700E8300FE0E7E0E0900F40054
:100C08007408F3007308F5000D2E0130F300730823
:100C1800F5077508840083130008031D142E152E8C
:100C2800092E1E2E0130F3007308F5070130F3007A
:100C38007308F207720884000008F300750884003E
:100C4800730880000008031D2A2E2B2E162E08007C
:100C5800F601F701721C312E322E382E7408F60771
:100C68000318F70A7508F70701300310F40DF50D9E
:100C7800FF3E031D392E01300310F30CF20CFF3E2A
:100C8800031D402E72087304031D4B2E4C2E2E2E6E
:100C98007708F3007608F200080083120313B60001
:100CA8003608B4003408B800B9013230B40034084A
:100CB800B7003108B4003408A6003730B50035084D
:100CC800A70038300A128A1178210A128A11831271
:100CD8000313380884008313800108008312031368
:100CE800B600B7010130B3003308B8003130B300A3
:100CF8003308B5003608B3003308A6003530B40011
:100D08003408A70037300A128A1178210A128A118A
:100D180008000A128A1122250A128A11831603135F
:100D280024088312031388008316031322088312EE
:100D3800031385000A128A1130200A128A11922E92
:100D48000A128A110C28F300F2013A3073020318D0
:100D5800AE2EAF2EB72E30307302031CB42EB52E34
:100D6800B72EF201F20A720C0800831203130C1E4C
:0C0D7800BE2EBF2EB92E72089900080094
:04400E00D420FF3F7C
:00000001FF
