:020000040000FA
:060000000A128A11FC2F18
:100E4200831603178801890107308316031385006F
:100E520086018701880183120313850186018701B8
:100E62008801831603130F178F160F160F1408002D
:100E72000A128A1121270A128A11831203130518F2
:100E8200432F442F3E2F8230F600DD30F500F50B64
:100E9200482FF60B482F4D2F83120313051C522F98
:100EA200532F3E2F0A128A1165270A128A11013026
:100EB200F0000030F1000A128A11A8270A128A11E2
:100EC2003E2F0A128A1100280630F2001330F10078
:100ED200AD30F000F00B6B2FF10B6B2FF20B6B2F81
:100EE200722F8312031385150630F2001330F100BE
:100EF200AD30F000F00B7B2FF10B7B2FF20B7B2F31
:100F0200822F83120313851105160630F200133067
:100F1200F100AD30F000F00B8C2FF10B8C2FF20BA7
:100F22008C2F932F83120313051285160630F200BD
:100F32001330F100AD30F000F00B9D2FF10B9D2F1F
:100F4200F20B9D2FA42F8312031385120800700346
:100F52007104031DAD2FAE2FFB2F831203138518CF
:100F6200B32FB42FD52F0230F4000430F300BA307F
:100F7200F200F20BBA2FF30BBA2FF40BBA2F0000C8
:100F820083120313851CC62FC72FD52F0130F20001
:100F920072088707070A031DCF2FD02FD52F0630DF
:100FA200860086170517FB2F0519D82FD92FAE2FCC
:100FB2000230F4000430F300BA30F200F20BDF2FFB
:100FC200F30BDF2FF40BDF2F000083120313051D39
:100FD200EB2FEC2FAE2F0130F20072088807080ABF
:100FE200031DF42FF52FFA2F5B3086008617851725
:0E0FF200FB2FAE2F080083010A128A11392F3F
:04400E00D420FF3F7C
:00000001FF
