:020000040000FA
:060000000A128A110C280F
:10000800FE00030EF1000A08F2000A128A111528F0
:100018000A128A110F28F401F50183010A128A11C4
:10002800D6280B1C182819282E2883120313061803
:100038001E281F2824287408013EF0007008F400C8
:100048008618272828282D287408FF3EF0007008F5
:10005800F4000B10831203138C1D332834288828CE
:100068001412141B382839283D28941F3C283D2891
:1000780044281308F0007008F5001413941314169C
:1000880083160313941A49284A28652814194D28F9
:100098004E286528831203131308F0007008F50032
:1000A8008C11141683160313141C5B285C2856281D
:1000B80083120313130885005330F000F00B6228F5
:1000C8008528941A682869288528141D6C286D28A5
:1000D8008528831203131308F0007008F5008316AF
:1000E8000313141074088312031393001416533067
:1000F800F000F00B7D288316031314188428852834
:100108007F28831203138C1172088A00710E8300F2
:10011800FE0E7E0E090083160317880189018316D7
:100128000313061486140810881008118811831206
:10013800031385018601870188018901831603134A
:10014800811303309500161496140F128F160F178B
:100158000F140C17831203130C138B170B170B14A4
:100168008B1590300A128A11BC200A128A110800D5
:10017800F3007308831603139300363083120313B6
:100188009400803083160313940001309100871582
:1001980007168B170B17831203138C11831603137F
:1001A8008C1508000A128A118F200A128A110A1265
:1001B8008A11E4200A128A11DB280A128A110C28F3
:1001C800103074020318E928EA28EF28740883120B
:0A01D80003138800F028F40108006A
:04400E00D420FF3F7C
:00000001FF
