:020000040000FA
:060000000A128A110C280F
:10000800FE00030EF0000A08F1000A128A11F12B13
:100018000A128A110F28FA01FB0183120313EA015D
:10002800EB01EC0183160313A001A101A201A301B6
:10003800A401A501A601A701A801A90183010A122B
:100048008A11F72DFF0000308A007F0882072B28CD
:100058000A128A11D82B8316031329080A128A1147
:1000680023250A128A11023083160313AC00453087
:10007800AB00A930AA00AA0B3F28AB0B3F28AC0B5A
:100088003F2825300A128A11A7230A128A11023042
:1000980083160313AC004530AB00A930AA00AA0BA5
:1000A8005328AB0B5328AC0B532898300A128A11EB
:1000B800A7230A128A11023083160313AC004530B5
:1000C800AB00A930AA00AA0B6728AB0B6728AC0BBA
:1000D80067287B08831203139900023083160313E1
:1000E800AC004530AB00A930AA00AA0B7928AB0BAD
:1000F8007928AC0B79282E3083120313990002302B
:1001080083160313AC004530AB00A930AA00AA0B34
:100118008B28AB0B8B28AC0B8B287A088312031324
:100128009900023083160313AC004530AB00A930A8
:10013800AA00AA0B9D28AB0B9D28AC0B9D28831207
:1001480003136C089900023083160313AC00453082
:10015800AB00A930AA00AA0BAF28AB0BAF28AC0B99
:10016800AF2894300A128A11A7230A128A11023082
:1001780083160313AC004530AB00A930AA00AA0BC4
:10018800C328AB0BC328AC0BC3287E300A128A11D4
:10019800A7230A128A118316031328080A128A1140
:1001A80023250A128A11023083160313AC00453046
:1001B800AB00A930AA00AA0BDF28AB0BDF28AC0BD9
:1001C800DF280B300A128A11A7230A128A1102307B
:1001D80083160313AC004530AB00A930AA00AA0B64
:1001E800F328AB0BF328AC0BF32898300A128A11CA
:1001F800A7230A128A11023083160313AC00453074
:10020800AB00A930AA00AA0B0729AB0B0729AC0B36
:1002180007297B08831203139900023083160313FE
:10022800AC004530AB00A930AA00AA0B1929AB0BCA
:100238001929AC0B19292E308312031399000230A7
:1002480083160313AC004530AB00A930AA00AA0BF3
:100258002B29AB0B2B29AC0B2B297A088312031300
:100268009900023083160313AC004530AB00A93067
:10027800AA00AA0B3D29AB0B3D29AC0B3D298312E3
:1002880003136C089900023083160313AC00453041
:10029800AB00A930AA00AA0B4F29AB0B4F29AC0B16
:1002A8004F2994300A128A11A7230A128A110230A0
:1002B80083160313AC004530AB00A930AA00AA0B83
:1002C8006329AB0B6329AC0B63297E300A128A11B0
:1002D800A7230A128A116C300A128A11A7230A125C
:1002E8008A11831203138C1E7A297B2975291A080F
:1002F800D03E83160313AA002A0883120313EA00C8
:1003080035301A02031889298A29752980300A127A
:100318008A11A7230A128A11831203138C1E9529A6
:10032800962990291A08D03E83160313AA002A0892
:10033800A7000430831203136A06031DA429A52904
:10034800AB2936301A020318AA29AB29902957304D
:100358000A128A11A7230A128A11831203138C1E08
:10036800B629B729B1291A08D03E83160313AA0063
:100378002A08A6000430831203136A06031DC52940
:10038800C629D6290530831603132706031DCD2950
:10039800CE29D6293630831203131A020318D52919
:1003A800D629B12983126A0883160313AA00AB0160
:1003B8002A0883120313BA00831603132B08831227
:1003C8000313BB00831603132708AC00AD012C08E8
:1003D80083120313BC00831603132D08831203131F
:1003E800BD000A128A11F2260A128A118312031317
:1003F8003A0883160313AE002E08A4002408AA00A6
:10040800AB012A0883120313BA00831603132B08BF
:1004180083120313BB00831603132608AC00AD0137
:100428002C0883120313BC00831603132D088312B0
:100438000313BD000A128A11F2260A128A118312C6
:1004480003133B0883160313A300831203133A080C
:1004580083160313A200023083160313AC00453041
:10046800AB00A930AA00AA0B372AAB0B372AAC0B72
:10047800372A83160313230883120313B200831643
:100488000313220883120313B1003E300A128A11A3
:10049800A7230A128A11080083120313B0006F2BD6
:1004A80025302F060319592A5A2A802A300A84002F
:1004B800831300080319612A622A712A2F08A800E9
:1004C8002808F200300A840000080A128A1126203F
:1004D8000A128A1183120313532A2F08A80030081E
:1004E800840000088400280880000130A800300833
:1004F800840028088007532AAB010130A607FF3083
:10050800260784000A128A1100240A128A11AF00F1
:10051800A800A9012908003A0319932A6F2B280873
:10052800003A0319832B643A03199E2A0D3A0319DA
:100538009E2A6F2B2708840083130008A800023026
:100548008007280884000008AD00840A0008AE006F
:10055800AE1FAF2AB02AB92A0330A8002808AB0476
:10056800AD09AE09AD0A0319AE0AAF01AF0A2F08EB
:10057800A8002807013E84000A128A1100240A12E2
:100588008A11A9000A128A1100240A128A11AA00E3
:100598002A082E02031DD22A29082D020318D52A5B
:1005A800D62AD72AE12A0130A8002808AF07053043
:1005B8002F06031DE02AE12ABB2A2B080339031959
:1005C800E62AE72A0A2B300A840083130008031955
:1005D800EE2AEF2AFC2A2D30A8002808F200300A5B
:1005E800840000080A128A1126200A128A110A2B8E
:1005F8002D30A800300884000008840028088000F6
:100608000130A800300884002808800783120313EB
:100618002F08A8002808AC00642B0A30A00000307E
:10062800A1002C08A8002807013E84000A128A119C
:1006380000240A128A11F2000A128A1100240A12EE
:100648008A11F3002E08F5002D08F4000A128A1109
:10065800AE260A128A11730883120313A3007208C4
:10066800A2000A128A112F270A128A118312031371
:100678002008303EA9002908AF00300A84008313FF
:1006880000080319482B492B562B2F08A8002808C7
:10069800F200300A840000080A128A1126200A1281
:1006A8008A11642B2F08A8003008840000088400F1
:1006B800280880000130A800300884002808800736
:1006C800FF3083120313A8002808AC072C0A031D67
:1006D8006E2B6F2B112B013083120313A607FF30EB
:1006E800260784000A128A1100240A128A11A80017
:1006F8002808AF002F08031D822B832B542AA6013C
:10070800A701080083120313B6003608B4003408A2
:10071800B800B9013230B4003408B7003108B40069
:100728003408A6003730B5003508A70038300A125B
:100738008A1150220A128A1183120313380884007E
:1007480083138001080083120313B600B701013038
:10075800B3003308B8003130B3003308B5003608A9
:10076800B3003308A6003530B4003408A70037308A
:100778000A128A1150220A128A110800F5008316FB
:1007880003138712751DC92BCA2BCE2B740894002E
:100798008715D22B720874049400871175087304A6
:1007A8008312031394000800831203130C1EDD2B1D
:1007B800DE2BD82B7208990008000A128A11EA2346
:1007C8000A128A11831203131308080083160313ED
:1007D800141CEF2BF02BEA2B080071088A00700E0E
:1007E8008300FE0E7E0E0900F200720883120313C6
:0407F8009300080062
:1008000004308A000408840A82070034013400346A
:100810000A34003464340034E834033410342734A8
:100820000D34203445346C342034763461346C34E7
:100830006F3472342034643465346C342034503472
:100840004F34543432342034653473343A342034E1
:100850000D3400340D34203445346C342034763477
:1008600061346C346F3472342034643465346C34E5
:10087000203450344F34543431342034653473349C
:100880003A340D34003445346C3420346E347534CD
:100890006D34653472346F34203465346C346534AF
:1008A0006734693464346F342034653473343A34D3
:1008B000203425346434003449346E34673472345F
:1008C0006534733461347234203455346E34693491
:1008D000643461346434653473343A3420340D3410
:1008E000003449346E34673472346534733461349F
:1008F00072342034433465346E34743465346E3469
:1009000061343A3420340D34003449346E34673461
:100910007234653473346134723420344434653451
:10092000633465346E34613473343A3420340D34B6
:100930000034203456342034003420342034003441
:1009400083120313A500A82C0130A0002008A507DE
:10095000250884002030831300060319B02CB12C25
:10096000A42C25088400093000060319B82CB92CE2
:10097000A42CA301A401A201250884002D300006A7
:10098000031DC32CC42CCD2C0130A0002008A207CD
:100990000130A0002008A507FF2C250884002B307B
:1009A0000006031DD42CD52CFF2C0130A0002008FC
:1009B000A507FF2C83120313250884002408F300E5
:1009C0002308F2000A30F4000030F5000A128A1100
:1009D000C9270A128A1183130008720783120313AE
:1009E000A0000030031801307307A1002008D03E9A
:1009F000A30021080318013EFF3EA400D52C2508C2
:100A0000840000080A128A11EE270A128A110318BC
:100A10000A2D0B2DDA2C8312031322080319112D32
:100A2000122D1E2D2309A0002409A100A00A0319DC
:100A3000A10A2008F8002108F900222D2408F90055
:100A40002308F8000800F9003230F2000030F3000B
:100A5000790883120313A400A5012408F4002508D3
:100A6000F5000A128A118E250A128A117208831261
:100A70000313A6002608FB006430F2000030F300E8
:100A80007908A400A5012408F4002508F5000A123D
:100A90008A1155260A128A11720883120313A600BE
:100AA0002608EB000A30F2000030F3006B08A400C7
:100AB000A5012408F4002508F5000A128A118E25E4
:100AC0000A128A11720883120313A6002608FA007C
:100AD0000A30F2000030F3006B08A400A5012408DE
:100AE000F4002508F5000A128A1155260A128A1107
:100AF000720883120313A6002608EC007B08303E20
:100B0000A4002408FB007A08303EA4002408FA0060
:100B10006C08303EA4002408EC0008008312031384
:100B2000A101F31F942D952D9C2DF209F309F20AD2
:100B30000319F30AA101A10AF51F9F2DA02DA92DCC
:100B4000F409F509F40A0319F50A0130F6007608EC
:100B5000A106A201A301720873040319B02DB12DDF
:100B6000E82DA001A00ABF2D01300310F20DF30DF6
:100B7000FF3E031DB52D0130F6007608A007F31FD8
:100B8000C22DC32DB42D01300310A20DA30DFF3EC5
:100B9000031DC42D73087502031DD02D7208740245
:100BA000031CD32DD42DDB2D7208F4027308031C13
:100BB000F503F502221401300310F30CF20CFF3E92
:100BC000031DDC2D0130A002031DE72DE82DC32DF0
:100BD00021080319EC2DED2DF22DA209A309A20A7B
:100BE0000319A30A2308F3002208F20008000A12DE
:100BF0008A116B270A128A11831203130711C73057
:100C000083120313E900042EE90B032E072E0A308A
:100C10000A128A11F8230A128A110A128A11E12390
:100C20000A128A1183120313E90069088316031359
:100C3000A900C73083120313E9001E2EE90B1D2EF5
:100C4000212E0A300A128A11F8230A128A110A1276
:100C50008A11E1230A128A1183120313E900690839
:100C600083160313A800C73083120313E900382E3C
:100C7000E90B372E3B2EC73083120313E900402EB9
:100C8000E90B3F2E432E8312031307150A128A1114
:100C90002F200A128A1183160313220883120313CA
:100CA0008800FC2D0A128A110C28F801F51F592E14
:100CB0005A2E612EF409F509F40A0319F50AF80110
:100CC000F80AF31F642E652E6A2EF209F309F20A60
:100CD0000319F30A7208730403196F2E702E9F2EE6
:100CE000F701F70A7E2E01300310F20DF30DFF3EDF
:100CF000031D742E0130F6007608F707F31F812ECE
:100D0000822E732E73087502031D882E72087402DA
:100D1000031C8B2E8C2E922E7208F4027308031C77
:100D2000F503F50201300310F30CF20CFF3E031D36
:100D3000932E0130F702031D9E2E9F2E822E7808DF
:100D40000319A32EA42EA92EF409F509F40A0319F8
:100D5000F50A7508F3007408F2000800F701F801BD
:100D6000720873040319B52EB62EED2EF901F90A97
:100D7000C42E01300310F20DF30DFF3E031DBA2EF9
:100D80000130F6007608F907F31FC72EC82EB92EDA
:100D900001300310F70DF80DFF3E031DC92E730837
:100DA0007502031DD52E72087402031CD82ED92E8D
:100DB000E02E7208F4027308031CF503F5027714A1
:100DC00001300310F30CF20CFF3E031DE12E013045
:100DD000F902031DEC2EED2EC82E7808F3007708DB
:100DE000F2000800543083120313BE003E08B10025
:100DF0003B08B3003A08B20053300A128A11862326
:100E00000A128A11543083120313BE003E08B10047
:100E10003D08B3003C08B2003F300A128A11862315
:100E20000A128A113F3083120313BE003E08F200FB
:100E300053300A128A11A0270A128A1153300A125B
:100E40008A11A0240A128A11790883120313E80078
:100E50007808E7006808BB006708BA00080083123A
:100E60000313200821040319362F372F662FA501FD
:100E7000A50A452F01300310A00DA10DFF3E031D53
:100E80003B2F0130A4002408A507A11F482F492F9C
:100E90003A2F21082302031D4F2F20082202031C92
:100EA000522F532F592F2008A2022108031CA303FD
:100EB000A30201300310A10CA00CFF3E031D5A2F0A
:100EC0000130A502031D652F662F492F2308A100BD
:100ED0002208A000080083160317880189018316E1
:100EE0000313071188018312031387018801071573
:100EF000F201F301F40120300A128A11C2230A120E
:100F00008A11831603130F178F160F120F1418125E
:100F100018158316031787111930831603139900C8
:100F200001309A00831203139817181318168316AA
:100F3000031318139816831203138C120C12080053
:100F4000F4007408F3007308F500AA2F0130F300D1
:100F50007308F5077508840083130008031DB12F7B
:100F6000B22FA62FBB2F0130F3007308F507013015
:100F7000F3007308F207720884000008F300750894
:100F80008400730880000008031DC72FC82FB32FEB
:100F90000800F601F701721CCE2FCF2FD52F740851
:100FA000F6070318F70A7508F70701300310F40D68
:100FB000F50DFF3E031DD62F01300310F30CF20C8C
:100FC000FF3E031DDD2F72087304031DE82FE92F78
:100FD000CB2F7708F3007608F2000800F300F20147
:100FE0003A3073020318F52FF62FFE2F30307302BC
:100FF000031CFB2FFC2FFE2FF201F20A720C0800DB
:04400E00D120FF3F7F
:00000001FF
